{
  "contractName": "DigitalAssetsMarket",
  "abi": [
    {
      "inputs": [],
      "stateMutability": "nonpayable",
      "type": "constructor"
    },
    {
      "anonymous": false,
      "inputs": [
        {
          "indexed": true,
          "internalType": "address",
          "name": "owner",
          "type": "address"
        },
        {
          "indexed": true,
          "internalType": "address",
          "name": "approved",
          "type": "address"
        },
        {
          "indexed": true,
          "internalType": "uint256",
          "name": "tokenId",
          "type": "uint256"
        }
      ],
      "name": "Approval",
      "type": "event"
    },
    {
      "anonymous": false,
      "inputs": [
        {
          "indexed": true,
          "internalType": "address",
          "name": "owner",
          "type": "address"
        },
        {
          "indexed": true,
          "internalType": "address",
          "name": "operator",
          "type": "address"
        },
        {
          "indexed": false,
          "internalType": "bool",
          "name": "approved",
          "type": "bool"
        }
      ],
      "name": "ApprovalForAll",
      "type": "event"
    },
    {
      "anonymous": false,
      "inputs": [
        {
          "indexed": true,
          "internalType": "uint256",
          "name": "tokenId",
          "type": "uint256"
        },
        {
          "indexed": false,
          "internalType": "address",
          "name": "seller",
          "type": "address"
        },
        {
          "indexed": false,
          "internalType": "address",
          "name": "owner",
          "type": "address"
        },
        {
          "indexed": false,
          "internalType": "uint256",
          "name": "price",
          "type": "uint256"
        },
        {
          "indexed": false,
          "internalType": "bool",
          "name": "sold",
          "type": "bool"
        }
      ],
      "name": "MarketItemCreated",
      "type": "event"
    },
    {
      "anonymous": false,
      "inputs": [
        {
          "indexed": true,
          "internalType": "address",
          "name": "from",
          "type": "address"
        },
        {
          "indexed": true,
          "internalType": "address",
          "name": "to",
          "type": "address"
        },
        {
          "indexed": true,
          "internalType": "uint256",
          "name": "tokenId",
          "type": "uint256"
        }
      ],
      "name": "Transfer",
      "type": "event"
    },
    {
      "inputs": [
        {
          "internalType": "address",
          "name": "to",
          "type": "address"
        },
        {
          "internalType": "uint256",
          "name": "tokenId",
          "type": "uint256"
        }
      ],
      "name": "approve",
      "outputs": [],
      "stateMutability": "nonpayable",
      "type": "function"
    },
    {
      "inputs": [
        {
          "internalType": "address",
          "name": "owner",
          "type": "address"
        }
      ],
      "name": "balanceOf",
      "outputs": [
        {
          "internalType": "uint256",
          "name": "",
          "type": "uint256"
        }
      ],
      "stateMutability": "view",
      "type": "function"
    },
    {
      "inputs": [
        {
          "internalType": "uint256",
          "name": "tokenId",
          "type": "uint256"
        }
      ],
      "name": "getApproved",
      "outputs": [
        {
          "internalType": "address",
          "name": "",
          "type": "address"
        }
      ],
      "stateMutability": "view",
      "type": "function"
    },
    {
      "inputs": [
        {
          "internalType": "address",
          "name": "owner",
          "type": "address"
        },
        {
          "internalType": "address",
          "name": "operator",
          "type": "address"
        }
      ],
      "name": "isApprovedForAll",
      "outputs": [
        {
          "internalType": "bool",
          "name": "",
          "type": "bool"
        }
      ],
      "stateMutability": "view",
      "type": "function"
    },
    {
      "inputs": [],
      "name": "name",
      "outputs": [
        {
          "internalType": "string",
          "name": "",
          "type": "string"
        }
      ],
      "stateMutability": "view",
      "type": "function"
    },
    {
      "inputs": [
        {
          "internalType": "uint256",
          "name": "tokenId",
          "type": "uint256"
        }
      ],
      "name": "ownerOf",
      "outputs": [
        {
          "internalType": "address",
          "name": "",
          "type": "address"
        }
      ],
      "stateMutability": "view",
      "type": "function"
    },
    {
      "inputs": [
        {
          "internalType": "address",
          "name": "from",
          "type": "address"
        },
        {
          "internalType": "address",
          "name": "to",
          "type": "address"
        },
        {
          "internalType": "uint256",
          "name": "tokenId",
          "type": "uint256"
        }
      ],
      "name": "safeTransferFrom",
      "outputs": [],
      "stateMutability": "nonpayable",
      "type": "function"
    },
    {
      "inputs": [
        {
          "internalType": "address",
          "name": "from",
          "type": "address"
        },
        {
          "internalType": "address",
          "name": "to",
          "type": "address"
        },
        {
          "internalType": "uint256",
          "name": "tokenId",
          "type": "uint256"
        },
        {
          "internalType": "bytes",
          "name": "_data",
          "type": "bytes"
        }
      ],
      "name": "safeTransferFrom",
      "outputs": [],
      "stateMutability": "nonpayable",
      "type": "function"
    },
    {
      "inputs": [
        {
          "internalType": "address",
          "name": "operator",
          "type": "address"
        },
        {
          "internalType": "bool",
          "name": "approved",
          "type": "bool"
        }
      ],
      "name": "setApprovalForAll",
      "outputs": [],
      "stateMutability": "nonpayable",
      "type": "function"
    },
    {
      "inputs": [
        {
          "internalType": "bytes4",
          "name": "interfaceId",
          "type": "bytes4"
        }
      ],
      "name": "supportsInterface",
      "outputs": [
        {
          "internalType": "bool",
          "name": "",
          "type": "bool"
        }
      ],
      "stateMutability": "view",
      "type": "function"
    },
    {
      "inputs": [],
      "name": "symbol",
      "outputs": [
        {
          "internalType": "string",
          "name": "",
          "type": "string"
        }
      ],
      "stateMutability": "view",
      "type": "function"
    },
    {
      "inputs": [
        {
          "internalType": "uint256",
          "name": "tokenId",
          "type": "uint256"
        }
      ],
      "name": "tokenURI",
      "outputs": [
        {
          "internalType": "string",
          "name": "",
          "type": "string"
        }
      ],
      "stateMutability": "view",
      "type": "function"
    },
    {
      "inputs": [
        {
          "internalType": "address",
          "name": "from",
          "type": "address"
        },
        {
          "internalType": "address",
          "name": "to",
          "type": "address"
        },
        {
          "internalType": "uint256",
          "name": "tokenId",
          "type": "uint256"
        }
      ],
      "name": "transferFrom",
      "outputs": [],
      "stateMutability": "nonpayable",
      "type": "function"
    },
    {
      "inputs": [
        {
          "internalType": "uint256",
          "name": "_listingPrice",
          "type": "uint256"
        }
      ],
      "name": "updateListingPrice",
      "outputs": [],
      "stateMutability": "payable",
      "type": "function"
    },
    {
      "inputs": [],
      "name": "getListingPrice",
      "outputs": [
        {
          "internalType": "uint256",
          "name": "",
          "type": "uint256"
        }
      ],
      "stateMutability": "view",
      "type": "function"
    },
    {
      "inputs": [
        {
          "internalType": "string",
          "name": "tokenURI",
          "type": "string"
        },
        {
          "internalType": "uint256",
          "name": "price",
          "type": "uint256"
        }
      ],
      "name": "createToken",
      "outputs": [
        {
          "internalType": "uint256",
          "name": "",
          "type": "uint256"
        }
      ],
      "stateMutability": "payable",
      "type": "function"
    },
    {
      "inputs": [
        {
          "internalType": "uint256",
          "name": "tokenId",
          "type": "uint256"
        },
        {
          "internalType": "uint256",
          "name": "price",
          "type": "uint256"
        }
      ],
      "name": "resellToken",
      "outputs": [],
      "stateMutability": "payable",
      "type": "function"
    },
    {
      "inputs": [
        {
          "internalType": "uint256",
          "name": "tokenId",
          "type": "uint256"
        }
      ],
      "name": "createMarketSale",
      "outputs": [],
      "stateMutability": "payable",
      "type": "function"
    },
    {
      "inputs": [],
      "name": "fetchMarketItems",
      "outputs": [
        {
          "components": [
            {
              "internalType": "uint256",
              "name": "tokenId",
              "type": "uint256"
            },
            {
              "internalType": "address payable",
              "name": "seller",
              "type": "address"
            },
            {
              "internalType": "address payable",
              "name": "owner",
              "type": "address"
            },
            {
              "internalType": "uint256",
              "name": "price",
              "type": "uint256"
            },
            {
              "internalType": "bool",
              "name": "sold",
              "type": "bool"
            }
          ],
          "internalType": "struct DigitalAssetsMarket.MarketItem[]",
          "name": "",
          "type": "tuple[]"
        }
      ],
      "stateMutability": "view",
      "type": "function"
    },
    {
      "inputs": [],
      "name": "fetchMyNFTs",
      "outputs": [
        {
          "components": [
            {
              "internalType": "uint256",
              "name": "tokenId",
              "type": "uint256"
            },
            {
              "internalType": "address payable",
              "name": "seller",
              "type": "address"
            },
            {
              "internalType": "address payable",
              "name": "owner",
              "type": "address"
            },
            {
              "internalType": "uint256",
              "name": "price",
              "type": "uint256"
            },
            {
              "internalType": "bool",
              "name": "sold",
              "type": "bool"
            }
          ],
          "internalType": "struct DigitalAssetsMarket.MarketItem[]",
          "name": "",
          "type": "tuple[]"
        }
      ],
      "stateMutability": "view",
      "type": "function"
    },
    {
      "inputs": [
        {
          "internalType": "address",
          "name": "addr",
          "type": "address"
        }
      ],
      "name": "fetchItemsListed",
      "outputs": [
        {
          "components": [
            {
              "internalType": "uint256",
              "name": "tokenId",
              "type": "uint256"
            },
            {
              "internalType": "address payable",
              "name": "seller",
              "type": "address"
            },
            {
              "internalType": "address payable",
              "name": "owner",
              "type": "address"
            },
            {
              "internalType": "uint256",
              "name": "price",
              "type": "uint256"
            },
            {
              "internalType": "bool",
              "name": "sold",
              "type": "bool"
            }
          ],
          "internalType": "struct DigitalAssetsMarket.MarketItem[]",
          "name": "",
          "type": "tuple[]"
        }
      ],
      "stateMutability": "view",
      "type": "function"
    }
  ],
  "bytecode": "0x60806040526658d15e176280006009553480156200001c57600080fd5b506040518060400160405280601081526020017f4d657461766572736520546f6b656e73000000000000000000000000000000008152506040518060400160405280600481526020017f4d455454000000000000000000000000000000000000000000000000000000008152508160009080519060200190620000a192919062000104565b508060019080519060200190620000ba92919062000104565b50505033600a60006101000a81548173ffffffffffffffffffffffffffffffffffffffff021916908373ffffffffffffffffffffffffffffffffffffffff16021790555062000219565b8280546200011290620001b4565b90600052602060002090601f01602090048101928262000136576000855562000182565b82601f106200015157805160ff191683800117855562000182565b8280016001018555821562000182579182015b828111156200018157825182559160200191906001019062000164565b5b50905062000191919062000195565b5090565b5b80821115620001b057600081600090555060010162000196565b5090565b60006002820490506001821680620001cd57607f821691505b60208210811415620001e457620001e3620001ea565b5b50919050565b7f4e487b7100000000000000000000000000000000000000000000000000000000600052602260045260246000fd5b61437680620002296000396000f3fe60806040526004361061012a5760003560e01c806370a08231116100ab578063ae677aa31161006f578063ae677aa31461040b578063b88d4fde14610427578063be9af53614610450578063c87b56dd1461046c578063e219fc75146104a9578063e985e9c5146104c55761012a565b806370a082311461030d57806372b3b6201461034a5780638a410b1a1461037a57806395d89b41146103b7578063a22cb465146103e25761012a565b806312e85585116100f257806312e8558514610228578063202e37401461025357806323b872dd1461027e57806342842e0e146102a75780636352211e146102d05761012a565b806301ffc9a71461012f57806306fdde031461016c578063081812fc14610197578063095ea7b3146101d45780630f08efe0146101fd575b600080fd5b34801561013b57600080fd5b5061015660048036038101906101519190612eb6565b610502565b6040516101639190613590565b60405180910390f35b34801561017857600080fd5b506101816105e4565b60405161018e91906135ab565b60405180910390f35b3480156101a357600080fd5b506101be60048036038101906101b99190612f5c565b610676565b6040516101cb91906134c2565b60405180910390f35b3480156101e057600080fd5b506101fb60048036038101906101f69190612e7a565b6106fb565b005b34801561020957600080fd5b50610212610813565b60405161021f919061356e565b60405180910390f35b34801561023457600080fd5b5061023d610ac8565b60405161024a919061388d565b60405180910390f35b34801561025f57600080fd5b50610268610ad2565b604051610275919061356e565b60405180910390f35b34801561028a57600080fd5b506102a560048036038101906102a09190612d74565b610e0c565b005b3480156102b357600080fd5b506102ce60048036038101906102c99190612d74565b610e6c565b005b3480156102dc57600080fd5b506102f760048036038101906102f29190612f5c565b610e8c565b60405161030491906134c2565b60405180910390f35b34801561031957600080fd5b50610334600480360381019061032f9190612d0f565b610f3e565b604051610341919061388d565b60405180910390f35b610364600480360381019061035f9190612f08565b610ff6565b604051610371919061388d565b60405180910390f35b34801561038657600080fd5b506103a1600480360381019061039c9190612d0f565b611038565b6040516103ae919061356e565b60405180910390f35b3480156103c357600080fd5b506103cc611374565b6040516103d991906135ab565b60405180910390f35b3480156103ee57600080fd5b5061040960048036038101906104049190612e3e565b611406565b005b61042560048036038101906104209190612f5c565b61141c565b005b34801561043357600080fd5b5061044e60048036038101906104499190612dc3565b6114b6565b005b61046a60048036038101906104659190612f5c565b611518565b005b34801561047857600080fd5b50610493600480360381019061048e9190612f5c565b611756565b6040516104a091906135ab565b60405180910390f35b6104c360048036038101906104be9190612f85565b6118a8565b005b3480156104d157600080fd5b506104ec60048036038101906104e79190612d38565b611a9d565b6040516104f99190613590565b60405180910390f35b60007f80ac58cd000000000000000000000000000000000000000000000000000000007bffffffffffffffffffffffffffffffffffffffffffffffffffffffff1916827bffffffffffffffffffffffffffffffffffffffffffffffffffffffff191614806105cd57507f5b5e139f000000000000000000000000000000000000000000000000000000007bffffffffffffffffffffffffffffffffffffffffffffffffffffffff1916827bffffffffffffffffffffffffffffffffffffffffffffffffffffffff1916145b806105dd57506105dc82611b31565b5b9050919050565b6060600080546105f390613b2e565b80601f016020809104026020016040519081016040528092919081815260200182805461061f90613b2e565b801561066c5780601f106106415761010080835404028352916020019161066c565b820191906000526020600020905b81548152906001019060200180831161064f57829003601f168201915b5050505050905090565b600061068182611b9b565b6106c0576040517f08c379a00000000000000000000000000000000000000000000000000000000081526004016106b7906137ad565b60405180910390fd5b6004600083815260200190815260200160002060009054906101000a900473ffffffffffffffffffffffffffffffffffffffff169050919050565b600061070682610e8c565b90508073ffffffffffffffffffffffffffffffffffffffff168373ffffffffffffffffffffffffffffffffffffffff161415610777576040517f08c379a000000000000000000000000000000000000000000000000000000000815260040161076e906137ed565b60405180910390fd5b8073ffffffffffffffffffffffffffffffffffffffff16610796611c07565b73ffffffffffffffffffffffffffffffffffffffff1614806107c557506107c4816107bf611c07565b611a9d565b5b610804576040517f08c379a00000000000000000000000000000000000000000000000000000000081526004016107fb906136ad565b60405180910390fd5b61080e8383611c0f565b505050565b606060006108216007611cc8565b9050600061082f6008611cc8565b6108396007611cc8565b6108439190613a32565b90506000808267ffffffffffffffff811115610888577f4e487b7100000000000000000000000000000000000000000000000000000000600052604160045260246000fd5b6040519080825280602002602001820160405280156108c157816020015b6108ae612ad6565b8152602001906001900390816108a65790505b50905060005b84811015610abd573073ffffffffffffffffffffffffffffffffffffffff16600b60006001846108f791906139ab565b815260200190815260200160002060020160009054906101000a900473ffffffffffffffffffffffffffffffffffffffff1673ffffffffffffffffffffffffffffffffffffffff161415610aaa57600060018261095491906139ab565b90506000600b60008381526020019081526020016000209050806040518060a0016040529081600082015481526020016001820160009054906101000a900473ffffffffffffffffffffffffffffffffffffffff1673ffffffffffffffffffffffffffffffffffffffff1673ffffffffffffffffffffffffffffffffffffffff1681526020016002820160009054906101000a900473ffffffffffffffffffffffffffffffffffffffff1673ffffffffffffffffffffffffffffffffffffffff1673ffffffffffffffffffffffffffffffffffffffff168152602001600382015481526020016004820160009054906101000a900460ff161515151581525050848681518110610a8d577f4e487b7100000000000000000000000000000000000000000000000000000000600052603260045260246000fd5b6020026020010181905250600185610aa591906139ab565b945050505b8080610ab590613b91565b9150506108c7565b508094505050505090565b6000600954905090565b60606000610ae06007611cc8565b905060008060005b83811015610b89573373ffffffffffffffffffffffffffffffffffffffff16600b6000600184610b1891906139ab565b815260200190815260200160002060020160009054906101000a900473ffffffffffffffffffffffffffffffffffffffff1673ffffffffffffffffffffffffffffffffffffffff161415610b7657600183610b7391906139ab565b92505b8080610b8190613b91565b915050610ae8565b5060008267ffffffffffffffff811115610bcc577f4e487b7100000000000000000000000000000000000000000000000000000000600052604160045260246000fd5b604051908082528060200260200182016040528015610c0557816020015b610bf2612ad6565b815260200190600190039081610bea5790505b50905060005b84811015610e01573373ffffffffffffffffffffffffffffffffffffffff16600b6000600184610c3b91906139ab565b815260200190815260200160002060020160009054906101000a900473ffffffffffffffffffffffffffffffffffffffff1673ffffffffffffffffffffffffffffffffffffffff161415610dee576000600182610c9891906139ab565b90506000600b60008381526020019081526020016000209050806040518060a0016040529081600082015481526020016001820160009054906101000a900473ffffffffffffffffffffffffffffffffffffffff1673ffffffffffffffffffffffffffffffffffffffff1673ffffffffffffffffffffffffffffffffffffffff1681526020016002820160009054906101000a900473ffffffffffffffffffffffffffffffffffffffff1673ffffffffffffffffffffffffffffffffffffffff1673ffffffffffffffffffffffffffffffffffffffff168152602001600382015481526020016004820160009054906101000a900460ff161515151581525050848681518110610dd1577f4e487b7100000000000000000000000000000000000000000000000000000000600052603260045260246000fd5b6020026020010181905250600185610de991906139ab565b945050505b8080610df990613b91565b915050610c0b565b508094505050505090565b610e1d610e17611c07565b82611cd6565b610e5c576040517f08c379a0000000000000000000000000000000000000000000000000000000008152600401610e539061382d565b60405180910390fd5b610e67838383611db4565b505050565b610e87838383604051806020016040528060008152506114b6565b505050565b6000806002600084815260200190815260200160002060009054906101000a900473ffffffffffffffffffffffffffffffffffffffff169050600073ffffffffffffffffffffffffffffffffffffffff168173ffffffffffffffffffffffffffffffffffffffff161415610f35576040517f08c379a0000000000000000000000000000000000000000000000000000000008152600401610f2c906136ed565b60405180910390fd5b80915050919050565b60008073ffffffffffffffffffffffffffffffffffffffff168273ffffffffffffffffffffffffffffffffffffffff161415610faf576040517f08c379a0000000000000000000000000000000000000000000000000000000008152600401610fa6906136cd565b60405180910390fd5b600360008373ffffffffffffffffffffffffffffffffffffffff1673ffffffffffffffffffffffffffffffffffffffff168152602001908152602001600020549050919050565b6000611002600761201b565b600061100e6007611cc8565b905061101a3382612031565b611024818561220b565b61102e818461227f565b8091505092915050565b606060006110466007611cc8565b905060008060005b838110156110ef573373ffffffffffffffffffffffffffffffffffffffff16600b600060018461107e91906139ab565b815260200190815260200160002060010160009054906101000a900473ffffffffffffffffffffffffffffffffffffffff1673ffffffffffffffffffffffffffffffffffffffff1614156110dc576001836110d991906139ab565b92505b80806110e790613b91565b91505061104e565b5060008267ffffffffffffffff811115611132577f4e487b7100000000000000000000000000000000000000000000000000000000600052604160045260246000fd5b60405190808252806020026020018201604052801561116b57816020015b611158612ad6565b8152602001906001900390816111505790505b50905060005b84811015611367578673ffffffffffffffffffffffffffffffffffffffff16600b60006001846111a191906139ab565b815260200190815260200160002060010160009054906101000a900473ffffffffffffffffffffffffffffffffffffffff1673ffffffffffffffffffffffffffffffffffffffff1614156113545760006001826111fe91906139ab565b90506000600b60008381526020019081526020016000209050806040518060a0016040529081600082015481526020016001820160009054906101000a900473ffffffffffffffffffffffffffffffffffffffff1673ffffffffffffffffffffffffffffffffffffffff1673ffffffffffffffffffffffffffffffffffffffff1681526020016002820160009054906101000a900473ffffffffffffffffffffffffffffffffffffffff1673ffffffffffffffffffffffffffffffffffffffff1673ffffffffffffffffffffffffffffffffffffffff168152602001600382015481526020016004820160009054906101000a900460ff161515151581525050848681518110611337577f4e487b7100000000000000000000000000000000000000000000000000000000600052603260045260246000fd5b602002602001018190525060018561134f91906139ab565b945050505b808061135f90613b91565b915050611171565b5080945050505050919050565b60606001805461138390613b2e565b80601f01602080910402602001604051908101604052809291908181526020018280546113af90613b2e565b80156113fc5780601f106113d1576101008083540402835291602001916113fc565b820191906000526020600020905b8154815290600101906020018083116113df57829003601f168201915b5050505050905090565b611418611411611c07565b8383612482565b5050565b3373ffffffffffffffffffffffffffffffffffffffff16600a60009054906101000a900473ffffffffffffffffffffffffffffffffffffffff1673ffffffffffffffffffffffffffffffffffffffff16146114ac576040517f08c379a00000000000000000000000000000000000000000000000000000000081526004016114a39061384d565b60405180910390fd5b8060098190555050565b6114c76114c1611c07565b83611cd6565b611506576040517f08c379a00000000000000000000000000000000000000000000000000000000081526004016114fd9061382d565b60405180910390fd5b611512848484846125ef565b50505050565b6000600b60008381526020019081526020016000206003015490506000600b600084815260200190815260200160002060010160009054906101000a900473ffffffffffffffffffffffffffffffffffffffff1690508134146115b0576040517f08c379a00000000000000000000000000000000000000000000000000000000081526004016115a79061372d565b60405180910390fd5b33600b600085815260200190815260200160002060020160006101000a81548173ffffffffffffffffffffffffffffffffffffffff021916908373ffffffffffffffffffffffffffffffffffffffff1602179055506001600b600085815260200190815260200160002060040160006101000a81548160ff0219169083151502179055506000600b600085815260200190815260200160002060010160006101000a81548173ffffffffffffffffffffffffffffffffffffffff021916908373ffffffffffffffffffffffffffffffffffffffff160217905550611694600861201b565b61169f303385611db4565b600a60009054906101000a900473ffffffffffffffffffffffffffffffffffffffff1673ffffffffffffffffffffffffffffffffffffffff166108fc6009549081150290604051600060405180830381858888f19350505050158015611709573d6000803e3d6000fd5b508073ffffffffffffffffffffffffffffffffffffffff166108fc349081150290604051600060405180830381858888f19350505050158015611750573d6000803e3d6000fd5b50505050565b606061176182611b9b565b6117a0576040517f08c379a00000000000000000000000000000000000000000000000000000000081526004016117979061376d565b60405180910390fd5b60006006600084815260200190815260200160002080546117c090613b2e565b80601f01602080910402602001604051908101604052809291908181526020018280546117ec90613b2e565b80156118395780601f1061180e57610100808354040283529160200191611839565b820191906000526020600020905b81548152906001019060200180831161181c57829003601f168201915b50505050509050600061184a61264b565b90506000815114156118605781925050506118a3565b60008251111561189557808260405160200161187d92919061349e565b604051602081830303815290604052925050506118a3565b61189e84612662565b925050505b919050565b3373ffffffffffffffffffffffffffffffffffffffff16600b600084815260200190815260200160002060020160009054906101000a900473ffffffffffffffffffffffffffffffffffffffff1673ffffffffffffffffffffffffffffffffffffffff161461194c576040517f08c379a00000000000000000000000000000000000000000000000000000000081526004016119439061378d565b60405180910390fd5b6009543414611990576040517f08c379a00000000000000000000000000000000000000000000000000000000081526004016119879061380d565b60405180910390fd5b6000600b600084815260200190815260200160002060040160006101000a81548160ff02191690831515021790555080600b60008481526020019081526020016000206003018190555033600b600084815260200190815260200160002060010160006101000a81548173ffffffffffffffffffffffffffffffffffffffff021916908373ffffffffffffffffffffffffffffffffffffffff16021790555030600b600084815260200190815260200160002060020160006101000a81548173ffffffffffffffffffffffffffffffffffffffff021916908373ffffffffffffffffffffffffffffffffffffffff160217905550611a8e6008612709565b611a99333084611db4565b5050565b6000600560008473ffffffffffffffffffffffffffffffffffffffff1673ffffffffffffffffffffffffffffffffffffffff16815260200190815260200160002060008373ffffffffffffffffffffffffffffffffffffffff1673ffffffffffffffffffffffffffffffffffffffff16815260200190815260200160002060009054906101000a900460ff16905092915050565b60007f01ffc9a7000000000000000000000000000000000000000000000000000000007bffffffffffffffffffffffffffffffffffffffffffffffffffffffff1916827bffffffffffffffffffffffffffffffffffffffffffffffffffffffff1916149050919050565b60008073ffffffffffffffffffffffffffffffffffffffff166002600084815260200190815260200160002060009054906101000a900473ffffffffffffffffffffffffffffffffffffffff1673ffffffffffffffffffffffffffffffffffffffff1614159050919050565b600033905090565b816004600083815260200190815260200160002060006101000a81548173ffffffffffffffffffffffffffffffffffffffff021916908373ffffffffffffffffffffffffffffffffffffffff160217905550808273ffffffffffffffffffffffffffffffffffffffff16611c8283610e8c565b73ffffffffffffffffffffffffffffffffffffffff167f8c5be1e5ebec7d5bd14f71427d1e84f3dd0314c0f7b2291e5b200ac8c7c3b92560405160405180910390a45050565b600081600001549050919050565b6000611ce182611b9b565b611d20576040517f08c379a0000000000000000000000000000000000000000000000000000000008152600401611d179061368d565b60405180910390fd5b6000611d2b83610e8c565b90508073ffffffffffffffffffffffffffffffffffffffff168473ffffffffffffffffffffffffffffffffffffffff161480611d9a57508373ffffffffffffffffffffffffffffffffffffffff16611d8284610676565b73ffffffffffffffffffffffffffffffffffffffff16145b80611dab5750611daa8185611a9d565b5b91505092915050565b8273ffffffffffffffffffffffffffffffffffffffff16611dd482610e8c565b73ffffffffffffffffffffffffffffffffffffffff1614611e2a576040517f08c379a0000000000000000000000000000000000000000000000000000000008152600401611e219061360d565b60405180910390fd5b600073ffffffffffffffffffffffffffffffffffffffff168273ffffffffffffffffffffffffffffffffffffffff161415611e9a576040517f08c379a0000000000000000000000000000000000000000000000000000000008152600401611e919061364d565b60405180910390fd5b611ea5838383612765565b611eb0600082611c0f565b6001600360008573ffffffffffffffffffffffffffffffffffffffff1673ffffffffffffffffffffffffffffffffffffffff1681526020019081526020016000206000828254611f009190613a32565b925050819055506001600360008473ffffffffffffffffffffffffffffffffffffffff1673ffffffffffffffffffffffffffffffffffffffff1681526020019081526020016000206000828254611f5791906139ab565b92505081905550816002600083815260200190815260200160002060006101000a81548173ffffffffffffffffffffffffffffffffffffffff021916908373ffffffffffffffffffffffffffffffffffffffff160217905550808273ffffffffffffffffffffffffffffffffffffffff168473ffffffffffffffffffffffffffffffffffffffff167fddf252ad1be2c89b69c2b068fc378daa952ba7f163c4a11628f55a4df523b3ef60405160405180910390a461201683838361276a565b505050565b6001816000016000828254019250508190555050565b600073ffffffffffffffffffffffffffffffffffffffff168273ffffffffffffffffffffffffffffffffffffffff1614156120a1576040517f08c379a00000000000000000000000000000000000000000000000000000000081526004016120989061374d565b60405180910390fd5b6120aa81611b9b565b156120ea576040517f08c379a00000000000000000000000000000000000000000000000000000000081526004016120e19061362d565b60405180910390fd5b6120f660008383612765565b6001600360008473ffffffffffffffffffffffffffffffffffffffff1673ffffffffffffffffffffffffffffffffffffffff168152602001908152602001600020600082825461214691906139ab565b92505081905550816002600083815260200190815260200160002060006101000a81548173ffffffffffffffffffffffffffffffffffffffff021916908373ffffffffffffffffffffffffffffffffffffffff160217905550808273ffffffffffffffffffffffffffffffffffffffff16600073ffffffffffffffffffffffffffffffffffffffff167fddf252ad1be2c89b69c2b068fc378daa952ba7f163c4a11628f55a4df523b3ef60405160405180910390a46122076000838361276a565b5050565b61221482611b9b565b612253576040517f08c379a000000000000000000000000000000000000000000000000000000000815260040161224a9061370d565b60405180910390fd5b8060066000848152602001908152602001600020908051906020019061227a929190612b33565b505050565b600081116122c2576040517f08c379a00000000000000000000000000000000000000000000000000000000081526004016122b99061386d565b60405180910390fd5b6009543414612306576040517f08c379a00000000000000000000000000000000000000000000000000000000081526004016122fd9061380d565b60405180910390fd5b6040518060a001604052808381526020013373ffffffffffffffffffffffffffffffffffffffff1681526020013073ffffffffffffffffffffffffffffffffffffffff16815260200182815260200160001515815250600b60008481526020019081526020016000206000820151816000015560208201518160010160006101000a81548173ffffffffffffffffffffffffffffffffffffffff021916908373ffffffffffffffffffffffffffffffffffffffff16021790555060408201518160020160006101000a81548173ffffffffffffffffffffffffffffffffffffffff021916908373ffffffffffffffffffffffffffffffffffffffff1602179055506060820151816003015560808201518160040160006101000a81548160ff02191690831515021790555090505061243f333084611db4565b817fb640004f1d14576d0c209e240cad0410e0d8c0c33a09375861fbadae2588a98d333084600060405161247694939291906134dd565b60405180910390a25050565b8173ffffffffffffffffffffffffffffffffffffffff168373ffffffffffffffffffffffffffffffffffffffff1614156124f1576040517f08c379a00000000000000000000000000000000000000000000000000000000081526004016124e89061366d565b60405180910390fd5b80600560008573ffffffffffffffffffffffffffffffffffffffff1673ffffffffffffffffffffffffffffffffffffffff16815260200190815260200160002060008473ffffffffffffffffffffffffffffffffffffffff1673ffffffffffffffffffffffffffffffffffffffff16815260200190815260200160002060006101000a81548160ff0219169083151502179055508173ffffffffffffffffffffffffffffffffffffffff168373ffffffffffffffffffffffffffffffffffffffff167f17307eab39ab6107e8899845ad3d59bd9653f200f220920489ca2b5937696c31836040516125e29190613590565b60405180910390a3505050565b6125fa848484611db4565b6126068484848461276f565b612645576040517f08c379a000000000000000000000000000000000000000000000000000000000815260040161263c906135ed565b60405180910390fd5b50505050565b606060405180602001604052806000815250905090565b606061266d82611b9b565b6126ac576040517f08c379a00000000000000000000000000000000000000000000000000000000081526004016126a3906137cd565b60405180910390fd5b60006126b661264b565b905060008151116126d65760405180602001604052806000815250612701565b806126e084612906565b6040516020016126f192919061349e565b6040516020818303038152906040525b915050919050565b60008160000154905060008111612755576040517f08c379a000000000000000000000000000000000000000000000000000000000815260040161274c906135cd565b60405180910390fd5b6001810382600001819055505050565b505050565b505050565b60006127908473ffffffffffffffffffffffffffffffffffffffff16612ab3565b156128f9578373ffffffffffffffffffffffffffffffffffffffff1663150b7a026127b9611c07565b8786866040518563ffffffff1660e01b81526004016127db9493929190613522565b602060405180830381600087803b1580156127f557600080fd5b505af192505050801561282657506040513d601f19601f820116820180604052508101906128239190612edf565b60015b6128a9573d8060008114612856576040519150601f19603f3d011682016040523d82523d6000602084013e61285b565b606091505b506000815114156128a1576040517f08c379a0000000000000000000000000000000000000000000000000000000008152600401612898906135ed565b60405180910390fd5b805181602001fd5b63150b7a0260e01b7bffffffffffffffffffffffffffffffffffffffffffffffffffffffff1916817bffffffffffffffffffffffffffffffffffffffffffffffffffffffff1916149150506128fe565b600190505b949350505050565b6060600082141561294e576040518060400160405280600181526020017f30000000000000000000000000000000000000000000000000000000000000008152509050612aae565b600082905060005b6000821461298057808061296990613b91565b915050600a826129799190613a01565b9150612956565b60008167ffffffffffffffff8111156129c2577f4e487b7100000000000000000000000000000000000000000000000000000000600052604160045260246000fd5b6040519080825280601f01601f1916602001820160405280156129f45781602001600182028036833780820191505090505b5090505b60008514612aa757600182612a0d9190613a32565b9150600a85612a1c9190613bda565b6030612a2891906139ab565b60f81b818381518110612a64577f4e487b7100000000000000000000000000000000000000000000000000000000600052603260045260246000fd5b60200101907effffffffffffffffffffffffffffffffffffffffffffffffffffffffffffff1916908160001a905350600a85612aa09190613a01565b94506129f8565b8093505050505b919050565b6000808273ffffffffffffffffffffffffffffffffffffffff163b119050919050565b6040518060a0016040528060008152602001600073ffffffffffffffffffffffffffffffffffffffff168152602001600073ffffffffffffffffffffffffffffffffffffffff168152602001600081526020016000151581525090565b828054612b3f90613b2e565b90600052602060002090601f016020900481019282612b615760008555612ba8565b82601f10612b7a57805160ff1916838001178555612ba8565b82800160010185558215612ba8579182015b82811115612ba7578251825591602001919060010190612b8c565b5b509050612bb59190612bb9565b5090565b5b80821115612bd2576000816000905550600101612bba565b5090565b6000612be9612be4846138cd565b6138a8565b905082815260208101848484011115612c0157600080fd5b612c0c848285613aec565b509392505050565b6000612c27612c22846138fe565b6138a8565b905082815260208101848484011115612c3f57600080fd5b612c4a848285613aec565b509392505050565b600081359050612c61816142e4565b92915050565b600081359050612c76816142fb565b92915050565b600081359050612c8b81614312565b92915050565b600081519050612ca081614312565b92915050565b600082601f830112612cb757600080fd5b8135612cc7848260208601612bd6565b91505092915050565b600082601f830112612ce157600080fd5b8135612cf1848260208601612c14565b91505092915050565b600081359050612d0981614329565b92915050565b600060208284031215612d2157600080fd5b6000612d2f84828501612c52565b91505092915050565b60008060408385031215612d4b57600080fd5b6000612d5985828601612c52565b9250506020612d6a85828601612c52565b9150509250929050565b600080600060608486031215612d8957600080fd5b6000612d9786828701612c52565b9350506020612da886828701612c52565b9250506040612db986828701612cfa565b9150509250925092565b60008060008060808587031215612dd957600080fd5b6000612de787828801612c52565b9450506020612df887828801612c52565b9350506040612e0987828801612cfa565b925050606085013567ffffffffffffffff811115612e2657600080fd5b612e3287828801612ca6565b91505092959194509250565b60008060408385031215612e5157600080fd5b6000612e5f85828601612c52565b9250506020612e7085828601612c67565b9150509250929050565b60008060408385031215612e8d57600080fd5b6000612e9b85828601612c52565b9250506020612eac85828601612cfa565b9150509250929050565b600060208284031215612ec857600080fd5b6000612ed684828501612c7c565b91505092915050565b600060208284031215612ef157600080fd5b6000612eff84828501612c91565b91505092915050565b60008060408385031215612f1b57600080fd5b600083013567ffffffffffffffff811115612f3557600080fd5b612f4185828601612cd0565b9250506020612f5285828601612cfa565b9150509250929050565b600060208284031215612f6e57600080fd5b6000612f7c84828501612cfa565b91505092915050565b60008060408385031215612f9857600080fd5b6000612fa685828601612cfa565b9250506020612fb785828601612cfa565b9150509250929050565b6000612fcd8383613418565b60a08301905092915050565b612fe281613a78565b82525050565b612ff181613a66565b82525050565b60006130028261393f565b61300c818561396d565b93506130178361392f565b8060005b8381101561304857815161302f8882612fc1565b975061303a83613960565b92505060018101905061301b565b5085935050505092915050565b61305e81613a8a565b82525050565b61306d81613a8a565b82525050565b600061307e8261394a565b613088818561397e565b9350613098818560208601613afb565b6130a181613cc7565b840191505092915050565b60006130b782613955565b6130c1818561398f565b93506130d1818560208601613afb565b6130da81613cc7565b840191505092915050565b60006130f082613955565b6130fa81856139a0565b935061310a818560208601613afb565b80840191505092915050565b6000613123601b8361398f565b915061312e82613cd8565b602082019050919050565b600061314660328361398f565b915061315182613d01565b604082019050919050565b600061316960258361398f565b915061317482613d50565b604082019050919050565b600061318c601c8361398f565b915061319782613d9f565b602082019050919050565b60006131af60248361398f565b91506131ba82613dc8565b604082019050919050565b60006131d260198361398f565b91506131dd82613e17565b602082019050919050565b60006131f5602c8361398f565b915061320082613e40565b604082019050919050565b600061321860388361398f565b915061322382613e8f565b604082019050919050565b600061323b602a8361398f565b915061324682613ede565b604082019050919050565b600061325e60298361398f565b915061326982613f2d565b604082019050919050565b6000613281602e8361398f565b915061328c82613f7c565b604082019050919050565b60006132a460408361398f565b91506132af82613fcb565b604082019050919050565b60006132c760208361398f565b91506132d28261401a565b602082019050919050565b60006132ea60318361398f565b91506132f582614043565b604082019050919050565b600061330d602a8361398f565b915061331882614092565b604082019050919050565b6000613330602c8361398f565b915061333b826140e1565b604082019050919050565b6000613353602f8361398f565b915061335e82614130565b604082019050919050565b600061337660218361398f565b91506133818261417f565b604082019050919050565b600061339960248361398f565b91506133a4826141ce565b604082019050919050565b60006133bc60318361398f565b91506133c78261421d565b604082019050919050565b60006133df60308361398f565b91506133ea8261426c565b604082019050919050565b6000613402601c8361398f565b915061340d826142bb565b602082019050919050565b60a08201600082015161342e6000850182613480565b5060208201516134416020850182612fd9565b5060408201516134546040850182612fd9565b5060608201516134676060850182613480565b50608082015161347a6080850182613055565b50505050565b61348981613ae2565b82525050565b61349881613ae2565b82525050565b60006134aa82856130e5565b91506134b682846130e5565b91508190509392505050565b60006020820190506134d76000830184612fe8565b92915050565b60006080820190506134f26000830187612fe8565b6134ff6020830186612fe8565b61350c604083018561348f565b6135196060830184613064565b95945050505050565b60006080820190506135376000830187612fe8565b6135446020830186612fe8565b613551604083018561348f565b81810360608301526135638184613073565b905095945050505050565b600060208201905081810360008301526135888184612ff7565b905092915050565b60006020820190506135a56000830184613064565b92915050565b600060208201905081810360008301526135c581846130ac565b905092915050565b600060208201905081810360008301526135e681613116565b9050919050565b6000602082019050818103600083015261360681613139565b9050919050565b600060208201905081810360008301526136268161315c565b9050919050565b600060208201905081810360008301526136468161317f565b9050919050565b60006020820190508181036000830152613666816131a2565b9050919050565b60006020820190508181036000830152613686816131c5565b9050919050565b600060208201905081810360008301526136a6816131e8565b9050919050565b600060208201905081810360008301526136c68161320b565b9050919050565b600060208201905081810360008301526136e68161322e565b9050919050565b6000602082019050818103600083015261370681613251565b9050919050565b6000602082019050818103600083015261372681613274565b9050919050565b6000602082019050818103600083015261374681613297565b9050919050565b60006020820190508181036000830152613766816132ba565b9050919050565b60006020820190508181036000830152613786816132dd565b9050919050565b600060208201905081810360008301526137a681613300565b9050919050565b600060208201905081810360008301526137c681613323565b9050919050565b600060208201905081810360008301526137e681613346565b9050919050565b6000602082019050818103600083015261380681613369565b9050919050565b600060208201905081810360008301526138268161338c565b9050919050565b60006020820190508181036000830152613846816133af565b9050919050565b60006020820190508181036000830152613866816133d2565b9050919050565b60006020820190508181036000830152613886816133f5565b9050919050565b60006020820190506138a2600083018461348f565b92915050565b60006138b26138c3565b90506138be8282613b60565b919050565b6000604051905090565b600067ffffffffffffffff8211156138e8576138e7613c98565b5b6138f182613cc7565b9050602081019050919050565b600067ffffffffffffffff82111561391957613918613c98565b5b61392282613cc7565b9050602081019050919050565b6000819050602082019050919050565b600081519050919050565b600081519050919050565b600081519050919050565b6000602082019050919050565b600082825260208201905092915050565b600082825260208201905092915050565b600082825260208201905092915050565b600081905092915050565b60006139b682613ae2565b91506139c183613ae2565b9250827fffffffffffffffffffffffffffffffffffffffffffffffffffffffffffffffff038211156139f6576139f5613c0b565b5b828201905092915050565b6000613a0c82613ae2565b9150613a1783613ae2565b925082613a2757613a26613c3a565b5b828204905092915050565b6000613a3d82613ae2565b9150613a4883613ae2565b925082821015613a5b57613a5a613c0b565b5b828203905092915050565b6000613a7182613ac2565b9050919050565b6000613a8382613ac2565b9050919050565b60008115159050919050565b60007fffffffff0000000000000000000000000000000000000000000000000000000082169050919050565b600073ffffffffffffffffffffffffffffffffffffffff82169050919050565b6000819050919050565b82818337600083830152505050565b60005b83811015613b19578082015181840152602081019050613afe565b83811115613b28576000848401525b50505050565b60006002820490506001821680613b4657607f821691505b60208210811415613b5a57613b59613c69565b5b50919050565b613b6982613cc7565b810181811067ffffffffffffffff82111715613b8857613b87613c98565b5b80604052505050565b6000613b9c82613ae2565b91507fffffffffffffffffffffffffffffffffffffffffffffffffffffffffffffffff821415613bcf57613bce613c0b565b5b600182019050919050565b6000613be582613ae2565b9150613bf083613ae2565b925082613c0057613bff613c3a565b5b828206905092915050565b7f4e487b7100000000000000000000000000000000000000000000000000000000600052601160045260246000fd5b7f4e487b7100000000000000000000000000000000000000000000000000000000600052601260045260246000fd5b7f4e487b7100000000000000000000000000000000000000000000000000000000600052602260045260246000fd5b7f4e487b7100000000000000000000000000000000000000000000000000000000600052604160045260246000fd5b6000601f19601f8301169050919050565b7f436f756e7465723a2064656372656d656e74206f766572666c6f770000000000600082015250565b7f4552433732313a207472616e7366657220746f206e6f6e20455243373231526560008201527f63656976657220696d706c656d656e7465720000000000000000000000000000602082015250565b7f4552433732313a207472616e736665722066726f6d20696e636f72726563742060008201527f6f776e6572000000000000000000000000000000000000000000000000000000602082015250565b7f4552433732313a20746f6b656e20616c7265616479206d696e74656400000000600082015250565b7f4552433732313a207472616e7366657220746f20746865207a65726f2061646460008201527f7265737300000000000000000000000000000000000000000000000000000000602082015250565b7f4552433732313a20617070726f766520746f2063616c6c657200000000000000600082015250565b7f4552433732313a206f70657261746f7220717565727920666f72206e6f6e657860008201527f697374656e7420746f6b656e0000000000000000000000000000000000000000602082015250565b7f4552433732313a20617070726f76652063616c6c6572206973206e6f74206f7760008201527f6e6572206e6f7220617070726f76656420666f7220616c6c0000000000000000602082015250565b7f4552433732313a2062616c616e636520717565727920666f7220746865207a6560008201527f726f206164647265737300000000000000000000000000000000000000000000602082015250565b7f4552433732313a206f776e657220717565727920666f72206e6f6e657869737460008201527f656e7420746f6b656e0000000000000000000000000000000000000000000000602082015250565b7f45524337323155524953746f726167653a2055524920736574206f66206e6f6e60008201527f6578697374656e7420746f6b656e000000000000000000000000000000000000602082015250565b7f506c65617365207375626d6974207468652061736b696e67207072696365206960008201527f6e206f7264657220746f20636f6d706c65746520746865207075726368617365602082015250565b7f4552433732313a206d696e7420746f20746865207a65726f2061646472657373600082015250565b7f45524337323155524953746f726167653a2055524920717565727920666f722060008201527f6e6f6e6578697374656e7420746f6b656e000000000000000000000000000000602082015250565b7f4f6e6c79206974656d206f776e65722063616e20706572666f726d207468697360008201527f206f7065726174696f6e00000000000000000000000000000000000000000000602082015250565b7f4552433732313a20617070726f76656420717565727920666f72206e6f6e657860008201527f697374656e7420746f6b656e0000000000000000000000000000000000000000602082015250565b7f4552433732314d657461646174613a2055524920717565727920666f72206e6f60008201527f6e6578697374656e7420746f6b656e0000000000000000000000000000000000602082015250565b7f4552433732313a20617070726f76616c20746f2063757272656e74206f776e6560008201527f7200000000000000000000000000000000000000000000000000000000000000602082015250565b7f5072696365206d75737420626520657175616c20746f206c697374696e67207060008201527f7269636500000000000000000000000000000000000000000000000000000000602082015250565b7f4552433732313a207472616e736665722063616c6c6572206973206e6f74206f60008201527f776e6572206e6f7220617070726f766564000000000000000000000000000000602082015250565b7f4f6e6c79206d61726b6574706c616365206f776e65722063616e20757064617460008201527f65206c697374696e672070726963652e00000000000000000000000000000000602082015250565b7f5072696365206d757374206265206174206c6561737420312077656900000000600082015250565b6142ed81613a66565b81146142f857600080fd5b50565b61430481613a8a565b811461430f57600080fd5b50565b61431b81613a96565b811461432657600080fd5b50565b61433281613ae2565b811461433d57600080fd5b5056fea2646970667358221220f9d453730deb62492df09db93b5997cf41adcfe9b5daeabe73448905c5deda4264736f6c63430008040033",
  "immutableReferences": {},
  "source": "// SPDX-License-Identifier: MIT\npragma solidity ^0.8.4;\n\nimport \"@openzeppelin/contracts/utils/Counters.sol\";\nimport \"@openzeppelin/contracts/token/ERC721/extensions/ERC721URIStorage.sol\";\nimport \"@openzeppelin/contracts/token/ERC721/ERC721.sol\";\n\ncontract DigitalAssetsMarket is ERC721URIStorage {\n    using Counters for Counters.Counter;\n    Counters.Counter private _tokenIds;\n    Counters.Counter private _itemsSold;\n\n    uint256 listingPrice = 0.025 ether;\n    address payable owner;\n\n    mapping(uint256 => MarketItem) private idToMarketItem;\n\n    struct MarketItem {\n      uint256 tokenId;\n      address payable seller;\n      address payable owner;\n      uint256 price;\n      bool sold;\n    }\n\n    event MarketItemCreated (\n      uint256 indexed tokenId,\n      address seller,\n      address owner,\n      uint256 price,\n      bool sold\n    );\n\n    constructor() ERC721(\"Metaverse Tokens\", \"METT\") {\n      owner = payable(msg.sender);\n    }\n\n    /* Updates the listing price of the contract */\n    function updateListingPrice(uint _listingPrice) public payable {\n      require(owner == msg.sender, \"Only marketplace owner can update listing price.\");\n      listingPrice = _listingPrice;\n    }\n  \n    /* Returns the listing price of the contract */\n    function getListingPrice() public view returns (uint256) {\n      return listingPrice;\n    }\n\n    /* Mints a token and lists it in the marketplace */\n    function createToken(string memory tokenURI, uint256 price) public payable returns (uint) {\n      _tokenIds.increment();\n      uint256 newTokenId = _tokenIds.current();\n\n      _mint(msg.sender, newTokenId);\n      _setTokenURI(newTokenId, tokenURI);\n      createMarketItem(newTokenId, price);\n      return newTokenId;\n    }\n\n    function createMarketItem(\n      uint256 tokenId,\n      uint256 price\n    ) private {\n      require(price > 0, \"Price must be at least 1 wei\");\n      require(msg.value == listingPrice, \"Price must be equal to listing price\");\n\n      idToMarketItem[tokenId] =  MarketItem(\n        tokenId,\n        payable(msg.sender),\n        payable(address(this)),\n        price,\n        false\n      );\n\n      _transfer(msg.sender, address(this), tokenId);\n      emit MarketItemCreated(\n        tokenId,\n        msg.sender,\n        address(this),\n        price,\n        false\n      );\n    }\n\n    /* allows someone to resell a token they have purchased */\n    function resellToken(uint256 tokenId, uint256 price) public payable {\n      require(idToMarketItem[tokenId].owner == msg.sender, \"Only item owner can perform this operation\");\n      require(msg.value == listingPrice, \"Price must be equal to listing price\");\n      idToMarketItem[tokenId].sold = false;\n      idToMarketItem[tokenId].price = price;\n      idToMarketItem[tokenId].seller = payable(msg.sender);\n      idToMarketItem[tokenId].owner = payable(address(this));\n      _itemsSold.decrement();\n\n      _transfer(msg.sender, address(this), tokenId);\n    }\n\n    /* Creates the sale of a marketplace item */\n    /* Transfers ownership of the item, as well as funds between parties */\n    function createMarketSale(\n      uint256 tokenId\n      ) public payable {\n      uint price = idToMarketItem[tokenId].price;\n      address seller = idToMarketItem[tokenId].seller;\n      require(msg.value == price, \"Please submit the asking price in order to complete the purchase\");\n      idToMarketItem[tokenId].owner = payable(msg.sender);\n      idToMarketItem[tokenId].sold = true;\n      idToMarketItem[tokenId].seller = payable(address(0));\n      _itemsSold.increment();\n      _transfer(address(this), msg.sender, tokenId);\n      payable(owner).transfer(listingPrice);\n      payable(seller).transfer(msg.value);\n    }\n\n    /* Returns all unsold market items */\n    function fetchMarketItems() public view returns (MarketItem[] memory) {\n      uint itemCount = _tokenIds.current();\n      uint unsoldItemCount = _tokenIds.current() - _itemsSold.current();\n      uint currentIndex = 0;\n\n      MarketItem[] memory items = new MarketItem[](unsoldItemCount);\n      for (uint i = 0; i < itemCount; i++) {\n        if (idToMarketItem[i + 1].owner == address(this)) {\n          uint currentId = i + 1;\n          MarketItem storage currentItem = idToMarketItem[currentId];\n          items[currentIndex] = currentItem;\n          currentIndex += 1;\n        }\n      }\n      return items;\n    }\n\n    /* Returns only items that a user has purchased */\n    function fetchMyNFTs() public view returns (MarketItem[] memory) {\n      uint totalItemCount = _tokenIds.current();\n      uint itemCount = 0;\n      uint currentIndex = 0;\n\n      for (uint i = 0; i < totalItemCount; i++) {\n        if (idToMarketItem[i + 1].owner == msg.sender) {\n          itemCount += 1;\n        }\n      }\n\n      MarketItem[] memory items = new MarketItem[](itemCount);\n      for (uint i = 0; i < totalItemCount; i++) {\n        if (idToMarketItem[i + 1].owner == msg.sender) {\n          uint currentId = i + 1;\n          MarketItem storage currentItem = idToMarketItem[currentId];\n          items[currentIndex] = currentItem;\n          currentIndex += 1;\n        }\n      }\n      return items;\n    }\n\n    /* Returns only items a user has listed */\n    function fetchItemsListed(address addr) public view returns (MarketItem[] memory) {\n      uint totalItemCount = _tokenIds.current();\n      uint itemCount = 0;\n      uint currentIndex = 0;\n\n      for (uint i = 0; i < totalItemCount; i++) {\n        if (idToMarketItem[i + 1].seller == msg.sender) {\n          itemCount += 1;\n        }\n      }\n\n      MarketItem[] memory items = new MarketItem[](itemCount);\n      for (uint i = 0; i < totalItemCount; i++) {\n        if (idToMarketItem[i + 1].seller == addr) {\n          uint currentId = i + 1;\n          MarketItem storage currentItem = idToMarketItem[currentId];\n          items[currentIndex] = currentItem;\n          currentIndex += 1;\n        }\n      }\n      return items;\n    }\n}",
  "sourcePath": "/Users/saver/Desktop/3334Project/backend/contracts/DigitalAssetsMarket.sol",
  "compiler": {
    "name": "solc",
    "version": "0.8.4+commit.c7e474f2.Linux.g++"
  },
  "schemaVersion": "3.4.7",
  "updatedAt": "2022-04-15T16:17:53.940Z",
  "devdoc": {
    "kind": "dev",
    "methods": {
      "approve(address,uint256)": {
        "details": "See {IERC721-approve}."
      },
      "balanceOf(address)": {
        "details": "See {IERC721-balanceOf}."
      },
      "getApproved(uint256)": {
        "details": "See {IERC721-getApproved}."
      },
      "isApprovedForAll(address,address)": {
        "details": "See {IERC721-isApprovedForAll}."
      },
      "name()": {
        "details": "See {IERC721Metadata-name}."
      },
      "ownerOf(uint256)": {
        "details": "See {IERC721-ownerOf}."
      },
      "safeTransferFrom(address,address,uint256)": {
        "details": "See {IERC721-safeTransferFrom}."
      },
      "safeTransferFrom(address,address,uint256,bytes)": {
        "details": "See {IERC721-safeTransferFrom}."
      },
      "setApprovalForAll(address,bool)": {
        "details": "See {IERC721-setApprovalForAll}."
      },
      "supportsInterface(bytes4)": {
        "details": "See {IERC165-supportsInterface}."
      },
      "symbol()": {
        "details": "See {IERC721Metadata-symbol}."
      },
      "tokenURI(uint256)": {
        "details": "See {IERC721Metadata-tokenURI}."
      },
      "transferFrom(address,address,uint256)": {
        "details": "See {IERC721-transferFrom}."
      }
    },
    "version": 1
  },
  "userdoc": {
    "kind": "user",
    "methods": {},
    "version": 1
  }
}